:1000000015C1000044C1000042C1000040C1000011
:100010003EC100003CC100003AC1000038C10000F0
:1000200036C1000034C1000032C1000030C1000000
:100030002EC100002CC100002AC1000028C1000010
:1000400026C1000024C1000022C1000020C1000020
:100050001EC100001CC100001AC10000E4C4000061
:1000600016C100000C94A1080C94D70810C1000020
:100070000EC100000CC100000AC1000008C1000050
:1000800006C1000004C1000002C1000000C1000060
:10009000FEC00000FCC00000FAC00000F8C0000074
:1000A000F6C00000F4C00000F2C00000F0C0000084
:1000B000EEC00000ECC00000EAC00000E8C0000094
:1000C000E6C00000E4C00000E2C00000E0C00000A4
:1000D000DEC00000DCC00000DAC00000D8C00000B4
:1000E000D6C0000061066406530657065D069B06EF
:1000F00068066C06720676067A068006840688060E
:100100009B068E069206960600000A0B02090C0D4D
:100110000E080703040100000000000000000000BA
:1001200000000000000000000000000000000000CF
:10013000000000001211100000000000000000008C
:1001400000000000000000000000000000000102AC
:1001500010202008081020401020408002010201D9
:100160000804020101020408102040808040201091
:1001700008040201800402018040201008040201EA
:100180000804020101020408102040800102040852
:10019000102040800505050507050808080802022B
:1001A00002020A0A08080404040401010101010111
:1001B00001010303030303030303040707070C0CF4
:1001C0000C0C0C0C0C0C02020202060606060606BB
:1001D00006060B0B0B0B0B0B0B0B00002000230078
:1001E000260029002C002F0032000001000003012E
:1001F0000601090100002200250028002B002E0026
:100200003100340002010000050108010B0100006B
:100210002100240027002A002D00300033000101B6
:100220000000040107010A013203090911241FBE5D
:10023000CFEFD1E2DEBFCDBF00E00CBF12E0A0E007
:10024000B2E0E0E4FEE100E00BBF02C007900D92D7
:10025000A433B107D9F723E0A4E3B2E001C01D92B3
:10026000A432B207E1F712E0CCE2D2E000E006C02F
:1002700022970109FE010BBF0E94A00CC832D107D2
:1002800080E00807A9F70E944D090C941E0FB8CE14
:100290008F929F92AF92BF92CF92DF92EF92FF9296
:1002A0000F931F93CF93DF9300D000D0CDB7DEB76D
:1002B0007C018B014A01FB01118210825B01C12C80
:1002C000D12C6BE072E0C4010E94E10B8823B1F0F5
:1002D000F50182819FD521E030E0892B11F020E0EB
:1002E00030E00C2C02C0220F331F0A94E2F7F80111
:1002F00080819181822B932B918380836DE072E0CA
:10030000C4010E94E10B882381F0F501828182D52E
:100310000C2C02C0880F991F0A94E2F7F801208183
:100320003181282B392B31832083FFEFCF1ADF0A4D
:1003300082E0A80EB11CECE0CE16D10409F0C1CFCA
:10034000F801608171814AE0C7010E943A0BF70110
:10035000848195810497A1F06FE072E0CE0101964F
:100360000E94F20AB701CE0101960E94B80BBC01AF
:10037000C7010E94070BCE0101960E948B0AE7CFAE
:10038000C70126960FB6F894DEBF0FBECDBFDF9132
:10039000CF911F910F91FF90EF90DF90CF90BF9082
:1003A000AF909F908F9008956F927F928F929F92BF
:1003B000AF92BF92CF92DF92EF92FF920F931F9373
:1003C000CF93DF93CDB7DEB762970FB6F894DEBF59
:1003D0000FBECDBF4C013B01BA01CE0107960E9472
:1003E0001C0BAE01495F5F4FB301CE01019650DF98
:1003F000CE0101960E948B0ACE0107960E948B0ABD
:10040000F30160817181882777FD8095982F1F9275
:100410001F922CE82F9320EA2F93A12CB12C650179
:10042000E12C10E1F12E00E010E020E030E0A90125
:100430000E94460AF301738F628F4AE0C4010E9452
:10044000640B0F900F900F900F90F40184819581B1
:100450000597A1F06FE072E0CE0101960E94F20ACA
:10046000B401CE0101960E94B80BBC01C4010E94E8
:10047000070BCE0101960E948B0AE7CF25E030E002
:1004800043E050E0B401CE0101960E94FF0B23E04F
:1004900030E040E050E0B401CE010D960E94FF0B29
:1004A000BE01635F7F4FCE0107960E941C0B61E186
:1004B00072E0CE0107960E94C90BBE016F5F7F4FAD
:1004C0000E94B80BBC01C4010E94070BCE01079625
:1004D0000E948B0ACE010D960E948B0ACE010196D6
:1004E0000E948B0AC40162960FB6F894DEBF0FBE5D
:1004F000CDBFDF91CF911F910F91FF90EF90DF90D3
:10050000CF90BF90AF909F908F907F906F90089505
:1005100026E040E052EC61E070E083E892E0B1D583
:1005200020E042E060E184E392E0D2C10F931F93A8
:10053000CF93DF93CDB7DEB72C970FB6F894DEBF1D
:100540000FBECDBF84E392E0A6D140E060E084E33B
:1005500092E0A6D163E172E084E392E0F4D640E059
:100560006FE084E392E09CD180914E026DD3909332
:100570004D0280934C02109253021092520240910D
:10058000500250915102E4E5F2E021E030E060E0F9
:1005900070E0A191B1918D01041B150B801791079B
:1005A00034F0A40FB51FA817B9070CF0B9012F5FDD
:1005B0003F4F2630310569F7609352027093530222
:1005C0004AE050E084E392E05AD741E060E084E3FF
:1005D00092E066D16DE072E0CE0107960E94F20AC9
:1005E000AE01495F5F4F6EE572E0CE01019650DECD
:1005F000BE016F5F7F4F84E392E097D6CE010196F4
:100600008AD7CE01079687D741E06AE084E392E07B
:1006100047D16DE072E0CE010796E4D7AE01495FA5
:100620005F4F6EE572E0CE010196BEDEBE016F5FE8
:100630007F4F84E392E079D6CE0101966CD7CE014C
:10064000079669D768EC70E080E090E059D22C966C
:100650000FB6F894DEBF0FBECDBFDF91CF911F91D3
:100660000F910895AF92CF92EF920F93CF93DF93B4
:100670008FE190E0909361028093600281E290E0CC
:10068000909363028093620283E290E0909365020C
:100690008093640285E290E0909367028093660203
:1006A00087E290E0909369028093680289E290E08B
:1006B00090936B0280936A028BE290E090936D02BC
:1006C00080936C028DE290E090936F0280936E02B3
:1006D0008FE290E0909371028093700281E390E04A
:1006E000909373028093720283E390E0909375027B
:1006F0008093740285E390E0909377028093760272
:10070000C0E6D2E08881229662E016D382E0C83744
:10071000D807C1F786E390E090934F0280934E0292
:1007200083E090E0909351028093500286ED92E036
:10073000909355028093540285EE91E09093570276
:100740008093560285E890E0909359028093580276
:1007500087E391E090935B0280935A0210925D02CE
:1007600010925C0237E0A32E46E0C42E55E0E52E41
:1007700004E029E04EE068E084E392E02FD1DF91CD
:10078000CF910F91EF90CF90AF900895CF93DF93DB
:10079000EC0160E08E8109D381E090E0E8D161E076
:1007A0008E8103D381E090E0E2D160E08E81FDD2C2
:1007B00084E690E0DF91CF91DAC1EF92FF920F9340
:1007C0001F93CF93DF938C01C0E0D0E0E62EF12C95
:1007D000B7010C2E02C0759567950A94E2F7617017
:1007E000F801EC0FFD1F8781E0D22196C430D105BE
:1007F00079F7C801DF91CF911F910F91FF90EF9092
:10080000C5CFEF92FF920F931F93CF93DF938C018D
:10081000C0E0D0E0E62EF12CB7010C2E02C0759599
:1008200067950A94E2F76170F801EC0FFD1F87816C
:10083000BCD22196C830D10579F7C801DF91CF919C
:100840001F910F91FF90EF90A1CF1F93CF93DF9354
:10085000EC01162F642F8C81A8D28D818F3F11F06F
:1008600060E0A3D28F85612F84FF05C0CE01DF91A8
:10087000CF911F91C6CF70E084E0759567958A95FA
:10088000E1F7CE019ADF612FCE01DF91CF911F9169
:1008900094CF40E0DACF61E0FCDF80ED97E067C104
:1008A000443008F043E0FC012389421710F04FEF79
:1008B000420FFC01E40FF11D2489260F2068622FEE
:1008C000E8CFFC016089262F2460208B6C60E1CF8B
:1008D0000F931F93CF93DF93EC01423018F08F8575
:1008E00088608F874B8B1C8A80E48D8B6E8B70E0C9
:1008F000605C7F4F6F8B222329F0413019F48F8584
:1009000084608F8761E08C8117D28D818F3F11F0D9
:1009100061E012D261E08E810FD200E010E08F859D
:1009200084FF03C088E090E002C084E090E00817F4
:1009300019074CF4FE01E00FF11F61E08781FCD143
:100940000F5F1F4FECCF80E593EC11D160E08C81FD
:100950002CD260E08E8129D28D818F3F11F060E032
:1009600024D26F8564FD16C063E0CE0126DF84E9E2
:1009700091E1FDD063E0CE0120DF84E991E1F7D081
:1009800063E0CE011ADF86E990E0F1D062E0CE01AB
:1009900014DF11C06062CE017CDF84E991E1E7D011
:1009A0006F856062CE0175DF86E990E0E0D06F85EB
:1009B0006062CE016EDF6F856062CE016ADF84E027
:1009C000888BCE017EDFCE0166DF82E0898B66E018
:1009D000CE01DF91CF911F910F915BCFAF92CF925C
:1009E000EF920F93FC011382128280E292E09183D6
:1009F00080836483458326830783E086C186A2863D
:100A00001386148615861686178620E041E060E17D
:100A1000CF010F91EF90CF90AF905ACF41E015DF0B
:100A200081E090E008951F920F920FB60F9211246B
:100A30002F933F938F939F93AF93BF9380917B02AC
:100A400090917C02A0917D02B0917E0230917A0259
:100A500023E0230F2D3720F40196A11DB11D05C001
:100A600026E8230F0296A11DB11D20937A028093E0
:100A70007B0290937C02A0937D02B0937E028091D2
:100A80007F0290918002A0918102B0918202019632
:100A9000A11DB11D80937F0290938002A0938102DB
:100AA000B0938202BF91AF919F918F913F912F910F
:100AB0000F900FBE0F901F9018953FB7F89480913C
:100AC0007F0290918002A0918102B091820226B5AE
:100AD000A89B05C02F3F19F00196A11DB11D3FBF76
:100AE0006627782F892F9A2F620F711D811D911D06
:100AF00042E0660F771F881F991F4A95D1F7089526
:100B00008F929F92AF92BF92CF92DF92EF92FF921D
:100B10006B017C01D2DF4B015C01C114D104E10403
:100B2000F104E1F0AFD6C9DF681979098A099B0998
:100B3000683E73408105910580F321E0C21AD10817
:100B4000E108F10888EE880E83E0981EA11CB11C14
:100B5000C114D104E104F10431F7DFCFFF90EF902D
:100B6000DF90CF90BF90AF909F908F90089582308C
:100B7000910538F0880F991F880F991F05970197E5
:100B8000F1F70895789484B5826084BD84B581605E
:100B900084BD85B5826085BD85B5816085BDEEE685
:100BA000F0E0808181608083E1E8F0E01082808164
:100BB00082608083808181608083E0E8F0E08081D2
:100BC00081608083E1EBF0E0808184608083E0EBF2
:100BD000F0E0808181608083E1E9F0E080818260E3
:100BE0008083808181608083E0E9F0E080818160A2
:100BF0008083E1EAF0E0808182608083808181608F
:100C00008083E0EAF0E0808181608083E1E2F1E0CE
:100C1000808182608083808181608083E0E2F1E076
:100C2000808181608083EAE7F0E080818460808356
:100C30008081826080838081816080838081806800
:100C400080831092C1000895863308F08653209166
:100C50007B00982F9870277F922B90937B00877052
:100C600020910A0290E4299F90011124822B809305
:100C70007C0080917A00806480937A0080917A0071
:100C800086FDFCCF809178002091790090E0922B36
:100C9000089590E0FC013197E231F10508F04BC076
:100CA000EE58FF4F3DC6809180008F7703C0809142
:100CB00080008F7D80938000089580918000877FE1
:100CC000F9CF84B58F7702C084B58F7D84BD089538
:100CD0008091B0008F7703C08091B0008F7D8093AA
:100CE000B0000895809190008F7707C080919000A8
:100CF0008F7D03C080919000877F8093900008953E
:100D00008091A0008F7707C08091A0008F7D03C0E5
:100D10008091A000877F8093A0000895809120019A
:100D20008F7707C0809120018F7D03C080912001C3
:100D3000877F809320010895CF93DF9390E0FC019B
:100D4000E25BFE4F2491FC01EC56FE4F8491882318
:100D500049F190E0880F991FFC01E25FFD4FA591DA
:100D6000B4918C509E4FFC01C591D4919FB76111F5
:100D700008C0F8948C91209582238C9388818223DB
:100D80000AC0623051F4F8948C91322F309583234D
:100D90008C938881822B888304C0F8948C91822B59
:100DA0008C939FBFDF91CF9108950F931F93CF93A3
:100DB000DF931F92CDB7DEB7282F30E0F901E85F4F
:100DC000FE4F8491F901E25BFE4F1491F901EC565C
:100DD000FE4F04910023C1F0882319F0698359DF85
:100DE0006981E02FF0E0EE0FFF1FEC50FE4FA59160
:100DF000B4919FB7F8948C91611103C01095812331
:100E000001C0812B8C939FBF0F90DF91CF911F91D9
:100E10000F910895CF93DF93282F30E0F901E85F19
:100E2000FE4F8491F901E25BFE4FD491F901EC563B
:100E3000FE4FC491CC2389F081112BDFEC2FF0E021
:100E4000EE0FFF1FE652FE4FA591B4912C912D237A
:100E500081E090E021F480E002C080E090E0DF914A
:100E6000CF910895FC01818D228D90E0805C9F4F91
:100E7000821B91098F7399270895FC01918D828DB2
:100E8000981731F0828DE80FF11D858D90E008955F
:100E90008FEF9FEF0895FC01918D828D981761F07F
:100EA000828DDF01A80FB11D5D968C91928D9F5FA1
:100EB0009F73928F90E008958FEF9FEF089580E0E9
:100EC00099E0892B39F080E090E0892B19F098D1D6
:100ED000811125C080E090E0892B41F080E090E016
:100EE000892B21F00E94000081111CC080E090E05D
:100EF000892B41F080E090E0892B21F00E940000D6
:100F0000811113C080E090E0892BA1F080E090E097
:100F1000892B81F00E94000081110AC008950E946F
:100F20000000D8CF0E940000E1CF0E940000EACF6D
:100F30000C9400000895FC01848DDF01A80FB11D01
:100F4000A35ABF4F2C91848D90E001968F739927FF
:100F5000848FA689B7892C93A089B1898C918064EC
:100F60008C93938D848D981306C00288F389E02DAD
:100F700080818F7D80830895CF93DF93EC01888DEE
:100F80008823C1F0EA89FB89808185FD05C0A88995
:100F9000B9898C9186FD0EC00FB607FCF5CF808114
:100FA00085FFF2CFA889B9898C9185FFEDCFCE015D
:100FB000C2DFE8CFDF91CF910895CF92DF92FF9209
:100FC0000F931F93CF93DF931F92CDB7DEB76C01C2
:100FD00081E0D60158968C9358975B969C915B97CD
:100FE0005C968C915C97981307C05096ED91FC919C
:100FF0005197808185FD2DC0F601038D10E00F5FB4
:101000001F4F0F731127F02EF601848DF81210C0B8
:101010000FB607FCF9CFD6015096ED91FC91519790
:10102000808185FFF1CFC601698385DF6981ECCFBF
:10103000838DE80FF11DE35AFF4F6083D6015B9665
:101040000C935B975296ED91FC915397808180624F
:101050000CC0D6015696ED91FC915797608350963F
:10106000ED91FC91519780818064808381E090E0D4
:101070000F90DF91CF911F910F91FF90DF90CF9054
:101080000895BF92CF92DF92EF92FF92CF93DF93BA
:10109000EC016A017B01B22EE889F98982E0808344
:1010A000411581EE58076105710599F060E079E01E
:1010B0008DE390E0A7019601F5D321503109410954
:1010C00051095695479537952795211580E13807A1
:1010D00090F0E889F989108260E874E88EE190E088
:1010E000A7019601DFD321503109410951095695D5
:1010F000479537952795EC85FD853083EE85FF85EF
:101100002083188EEC89FD89B082EA89FB89808171
:1011100080618083EA89FB89808188608083EA8995
:10112000FB89808180688083EA89FB8980818F7D4B
:101130008083DF91CF91FF90EF90DF90CF90BF90B1
:1011400008951F920F920FB60F9211240BB60F92B3
:101150002F938F939F93EF93FF93E0919302F091DE
:1011600094028081E0919902F0919A0282FD12C06E
:10117000908180919C028F5F8F7320919D028217D6
:1011800051F0E0919C02F0E0ED57FD4F958F809378
:101190009C0201C08081FF91EF919F918F912F91CF
:1011A0000F900BBE0F900FBE0F901F9018951F92BF
:1011B0000F920FB60F9211240BB60F922F933F93FD
:1011C0004F935F936F937F938F939F93AF93BF934F
:1011D000EF93FF9383E892E0AEDEFF91EF91BF9132
:1011E000AF919F918F917F916F915F914F913F91BF
:1011F0002F910F900BBE0F900FBE0F901F90189560
:1012000083E892E02FDE21E0892B09F420E0822F91
:101210000895109286021092850288EE93E0A0E075
:10122000B0E08093870290938802A0938902B093E4
:101230008A0288E292E0909384028093830285EC94
:1012400090E09093900280938F0284EC90E09093D2
:1012500092028093910280EC90E0909394028093AC
:10126000930281EC90E0909396028093950282EC39
:1012700090E0909398028093970286EC90E0909390
:101280009A028093990210929C0210929D021092F1
:101290009E0210929F020895089574DCFDDF38D9F4
:1012A000CFE5D7E043D92097E9F309DEFBCFCF9212
:1012B000DF92EF92FF920F931F93CF93DF937C0106
:1012C0006A01EB0100E010E00C151D0571F0699159
:1012D000D701ED91FC910190F081E02DC7011995A6
:1012E000892B19F00F5F1F4FEFCFC801DF91CF910E
:1012F0001F910F91FF90EF90DF90CF9008956115AF
:10130000710581F0DB010D900020E9F7AD0141503E
:101310005109461B570BDC01ED91FC910280F381D2
:10132000E02D199480E090E00895DC01ED91FC91AE
:10133000DB0114964D915C9115976D917C91028023
:10134000F381E02D1994DBCFDC01ED91FC9101904C
:10135000F081E02D19948F929F92AF92BF92DF920D
:10136000EF92FF920F931F93CF93DF93CDB7DEB72A
:10137000A1970FB6F894DEBF0FBECDBF7C01F42F4E
:10138000D52ECB0119A2223008F42AE08E010F5D80
:101390001F4F822E912CA12CB12C6F2F7D2DA501DA
:1013A000940180D2F22FD32ECA01015011096A3064
:1013B00014F4E0E301C0E7E3E60FD801EC93232B3C
:1013C000242B252B51F7B801C70199DFA1960FB641
:1013D000F894DEBF0FBECDBFDF91CF911F910F916B
:1013E000FF90EF90DF90BF90AF909F908F90089507
:1013F000CF92DF92EF92FF920F931F93CF93DF93E1
:10140000EC016A017B012115310579F4E881F9814C
:101410000190F081E02D642FDF91CF911F910F910A
:10142000FF90EF90DF90CF9019942A303105D9F4D6
:1014300077FF18C06DE288DF8C0144275527BA0179
:101440004C195D096E097F092AE0CE0184DF800F07
:10145000911FDF91CF911F910F91FF90EF90DF903F
:10146000CF9008952AE0B701A601CE01DF91CF9178
:101470001F910F91FF90EF90DF90CF906CCF9A016A
:10148000AB01662757FD6095762FB2CF4F925F92E2
:101490006F927F92AF92BF92CF92DF92EF92FF92C4
:1014A0000F931F93CF93DF93CDB7DEB729013A0196
:1014B000621B730B840B950B2A893B894C895D89D0
:1014C0002A193B094C095D092A8B3B8B4C8B5D8BA0
:1014D0009B01AC016A897B898C899D89D4D1E418F0
:1014E000F50806091709A8019701FED12A0D3B1D31
:1014F0004C1D5D1DCA01B901DF91CF911F910F9164
:10150000FF90EF90DF90CF90BF90AF907F906F9063
:101510005F904F900895FC0180819181BCC2CF9370
:10152000DF93EC0188819981009709F0B4D2198288
:1015300018821D821C821B821A82DF91CF9108952E
:101540000F931F93CF93DF93EC018B016F5F7F4F5E
:10155000888199812FD3009731F0998388831B83E9
:101560000A8381E001C080E0DF91CF911F910F914C
:101570000895CF93DF93EC0188819981892B29F01D
:101580008A819B818617970758F4CE01D9DF88237B
:1015900041F08C819D81892B19F4E881F9811082B9
:1015A00081E0DF91CF910895EF92FF920F931F9307
:1015B000CF93DF93EC017B018A01BA01DADF81115D
:1015C00003C0CE01ACDF06C01D830C83B701888148
:1015D0009981E6D3CE01DF91CF911F910F91FF90BA
:1015E000EF900895FC0111821082138212821582FD
:1015F00014826115710551F0FB0101900020E9F79B
:10160000AF0141505109461B570BCECF0895CF93E0
:10161000DF93EC01FB018617970751F06081718120
:101620006115710521F044815581BEDF01C077DF6E
:10163000CE01DF91CF910895FC01118210821382B7
:10164000128215821482E3CFCF93DF93EC016115F0
:10165000710559F0FB0101900020E9F7AF014150FD
:101660005109461B570BA0DF01C059DFCE01DF91A6
:10167000CF9108950F931F93CF93DF93CDB7DEB72C
:1016800062970FB6F894DEBF0FBECDBF8C01CB01C1
:10169000F80111821082138212821582148250E0A6
:1016A000BE016F5F7F4F83D3BE016F5F7F4FC80165
:1016B000CBDF62960FB6F894DEBF0FBECDBFDF91D1
:1016C000CF911F910F9108950F931F93CF93DF93A5
:1016D000CDB7DEB761970FB6F894DEBF0FBECDBFB2
:1016E0008C01CB01F80111821082138212821582C3
:1016F000148250E0BE016F5F7F4F6DD3BE016F5FFC
:101700007F4FC801A1DF61960FB6F894DEBF0FBE10
:10171000CDBFDF91CF911F910F910895EF92FF926E
:101720000F931F93CF93DF93EC017B010C811D81FD
:101730006115710511F480E014C04115510581F067
:10174000040F151FB80115DF8823A9F328813981FB
:101750008C819D81B701820F931F22D31D830C833F
:1017600081E0DF91CF911F910F91FF90EF9008954D
:10177000CF93DF93EC01FB0144815581608171813E
:10178000CDDF811102C0CE01CADECE01DF91CF9143
:101790000895CF93DF93EC016115710561F0FB01B2
:1017A00001900020E9F7AF0141505109461B570B4A
:1017B000B5DF811102C0CE01B2DECE01DF91CF9143
:1017C0000895FC0124813581232B31F421E061153A
:1017D000710599F0FB0108C0FC01808191816115C0
:1017E000710531F421E0FC018081882331F004C0CF
:1017F000CED221E0892B09F020E0822F0895BF92FC
:10180000CF92DF92EF92FF920F931F93CF93DF93CC
:101810006C017B01EA0189012417350720F48D2F23
:10182000E901042F182F62E172E0C601DBDED70167
:1018300014968D919C911597C817D907C0F48017FD
:10184000910708F48C01D701ED91FC911197E00FFD
:10185000F11FB08010826D917C916C0F7D1FC601CD
:10186000F3DED701ED91FC91E00FF11FB082C601CC
:10187000DF91CF911F910F91FF90EF90DF90CF906C
:10188000BF9008950895DB018F939F934FD0BF9130
:10189000AF91A29F800D911DA39F900DB29F900DBF
:1018A00011240895A1E21A2EAA1BBB1BFD010DC035
:1018B000AA1FBB1FEE1FFF1FA217B307E407F50700
:1018C00020F0A21BB30BE40BF50B661F771F881FDC
:1018D000991F1A9469F760957095809590959B0172
:1018E000AC01BD01CF010895052E97FB16F40094BD
:1018F0000FD057FD05D0D6DF07FC02D046F408C054
:1019000050954095309521953F4F4F4F5F4F08952B
:1019100090958095709561957F4F8F4F9F4F08955B
:10192000EE0FFF1F0590F491E02D19940DD0A59FA7
:10193000900DB49F900DA49F800D911D11240895CA
:101940000790F691E02D1994A29FB001B39FC001BA
:10195000A39F700D811D1124911DB29F700D811DDB
:101960001124911D0895CF93DF938230910510F4D7
:1019700082E090E0E0912203F091230320E030E048
:10198000A0E0B0E0309739F1408151814817590704
:10199000B8F04817590771F482819381109729F0A4
:1019A00013969C938E9312972CC09093230380934D
:1019B000220327C02115310531F04217530718F0D3
:1019C000A901DB0101C0EF019A01BD01DF01028025
:1019D000F381E02DD7CF21153105F9F0281B390B04
:1019E0002430310580F48A819B816115710521F0D5
:1019F000FB019383828304C090932303809322038B
:101A0000FE01329644C0FE01E20FF31F81939193D1
:101A100022503109398328833AC020912003309124
:101A20002103232B41F420910202309103023093D1
:101A300021032093200320910002309101022115FF
:101A4000310541F42DB73EB7409104025091050293
:101A5000241B350BE0912003F0912103E217F307DB
:101A6000A0F42E1B3F0B2817390778F0AC014E5F0E
:101A70005F4F2417350748F04E0F5F1F5093210327
:101A8000409320038193919302C0E0E0F0E0CF0106
:101A9000DF91CF910895CF93DF93009709F487C02A
:101AA000FC01329713821282C0912203D09123034A
:101AB000209781F420813181280F391F80912003E4
:101AC000909121038217930779F5F0932103E09316
:101AD00020036DC0DE0120E030E0AE17BF0750F4F8
:101AE00012964D915C9113979D014115510509F195
:101AF000DA01F3CFB383A28340815181840F951F14
:101B00008A179B0771F48D919C911197840F951FF3
:101B100002969183808312968D919C911397938363
:101B200082832115310529F4F0932303E0932203E6
:101B30003EC0D9011396FC93EE9312974D915D919F
:101B4000A40FB51FEA17FB0779F480819181840FF8
:101B5000951F0296D90111969C938E938281938151
:101B600013969C938E931297E0E0F0E08A819B811C
:101B7000009719F0FE01EC01F9CFCE010296288101
:101B80003981820F931F2091200330912103281760
:101B9000390769F4309729F4109223031092220335
:101BA00002C013821282D0932103C0932003DF91DD
:101BB000CF9108956F927F928F929F92AF92BF9232
:101BC000CF92DF92EF92FF920F931F93CF93DF9309
:101BD000EC01CB01209779F4DF91CF911F910F9108
:101BE000FF90EF90DF90CF90BF90AF909F908F903D
:101BF0007F906F90B8CEFE01E60FF71F9E01225036
:101C00003109E217F30708F4A8C0D9010D911C911E
:101C1000119706171707B0F00530110508F49BC09F
:101C2000A801445051094617570708F494C00250C0
:101C30001109061B170B019311936D937C93CF0130
:101C40002ADF89C05B01A01AB10A4E01800E911EE5
:101C5000A0912203B0912303612C712C60E070E00D
:101C6000109709F449C0A815B905C9F5ED90FC9085
:101C70001197670142E0C40ED11CCA14DB0478F14D
:101C800047018A189B08640142E0C40ED11C1296D9
:101C9000BC9012971396AC91B5E0CB16D10440F0EE
:101CA000B282A38391828082D9018D939C9309C0D3
:101CB0000E5F1F4F0E0D1F1DF90111830083EB2DC9
:101CC000FA2F6115710531F0DB011396FC93EE9349
:101CD000129741C0F0932303E09322033CC06D911F
:101CE0007C9111976616770608F43B01BD011296A8
:101CF0000D90BC91A02DB4CF609120037091210371
:101D000068157905E9F468167906D0F44091000267
:101D1000509101024115510541F44DB75EB76091F4
:101D2000040270910502461B570BE417F507A8F44F
:101D3000F0932103E0932003F901918380830BC08A
:101D400012DE7C01009749F0A801BE0117D0CE0138
:101D5000A2DEC70104C0CE0102C080E090E0DF91A6
:101D6000CF911F910F91FF90EF90DF90CF90BF9098
:101D7000AF909F908F907F906F900895FB01DC0152
:101D800002C001900D9241505040D8F70895FB01D8
:101D9000DC018D91019080190110D9F3990B089500
:101DA000FB01DC0101900D920020E1F7089545321E
:101DB000510518F4423008F004C0FB011082CB0139
:101DC0000895BB274A3031F4992322F4BDE290955F
:101DD00081959F4F0BC04532510518F4423008F0F1
:101DE00004C0FB011082CB010895BB27FB015527DE
:101DF000AA27880F991FAA1FA41710F0A41B839568
:101E00005051B9F7A05DAA3308F0A95DA1930097DE
:101E100079F7B111B1931192CB0100C0DC01FC0143
:101E2000672F71917723E1F7329704C07C916D930E
:101E300070836291AE17BF07C8F30895F894FFCF7F
:101E400000002403800001000000014C0048003025
:101E5000002E005265736F6C766572000000000002
:101E60000E05570900000000DD07570932074B0730
:041E70003D07BC0767
:00000001FF
