:1000000014C1000042C1000040C100003EC1000018
:100010003CC100003AC1000038C1000036C10000F8
:1000200034C1000032C1000030C100002EC1000008
:100030002CC100002AC1000028C1000026C1000018
:1000400024C1000022C1000020C100001EC1000028
:100050001CC100001AC1000018C1000072C50000D8
:1000600014C1000012C1000010C100000EC1000048
:100070000CC100000AC1000008C1000006C1000058
:1000800004C1000002C1000000C10000FEC0000069
:10009000FCC00000FAC00000F8C00000F6C000007C
:1000A000F4C00000F2C00000F0C00000EEC000008C
:1000B000ECC00000EAC00000E8C00000E6C000009C
:1000C000E4C00000E2C00000E0C00000DEC00000AC
:1000D000DCC00000DAC00000D8C00000D6C00000BC
:1000E000D4C00000FB06FE06ED06F106F706350754
:1000F000020706070C07100714071A071E07220736
:10010000350728072C07300700000A0B02090C0DE1
:100110000E080703040100000000000000000000BA
:1001200000000000000000000000000000000000CF
:10013000000000001211100000000000000000008C
:1001400000000000000000000000000000000102AC
:1001500010202008081020401020408002010201D9
:100160000804020101020408102040808040201091
:1001700008040201800402018040201008040201EA
:100180000804020101020408102040800102040852
:10019000102040800505050507050808080802022B
:1001A00002020A0A08080404040401010101010111
:1001B00001010303030303030303040707070C0CF4
:1001C0000C0C0C0C0C0C02020202060606060606BB
:1001D00006060B0B0B0B0B0B0B0B00002000230078
:1001E000260029002C002F0032000001000003012E
:1001F0000601090100002200250028002B002E0026
:100200003100340002010000050108010B0100006B
:100210002100240027002A002D00300033000101B6
:100220000000040107010A018C0311241FBECFEF57
:10023000D1E2DEBFCDBF00E00CBF12E0A0E0B2E033
:10024000E4EAF9E100E00BBF02C007900D92A2348E
:10025000B107D9F722E0A2E4B2E001C01D92A73BAA
:10026000B207E1F712E0CAE2D2E000E006C022974E
:100270000109FE010BBF0E945C0AC832D10780E071
:100280000807A9F78AD60C94D00CBACE8F929F9209
:10029000AF92BF92CF92DF92EF92FF920F931F9394
:1002A000CF93DF9300D000D0CDB7DEB77C018B01B8
:1002B0004A01FB01118210825B01C12CD12C63E247
:1002C00072E0C4010E949D098823B1F0F501848188
:1002D0003BD621E030E0892B11F020E030E00C2CFF
:1002E00002C0220F331F0A94E2F7F8018081918146
:1002F000822B932B9183808365E272E0C4010E947C
:100300009D09882381F0F50184811ED60C2C02C042
:10031000880F991F0A94E2F7F80120813181282B78
:10032000392B31832083FFEFCF1ADF0A82E0A80E3A
:10033000B11CECE0CE16D10409F0C1CFF801608108
:1003400071814AE0C7017CD7F701848195810497C8
:1003500081F067E272E0CE0101962AD7B701CE01A3
:100360000196C2D7BC01C70138D7CE010196B9D6D4
:10037000EBCFC70126960FB6F894DEBF0FBECDBFF8
:10038000DF91CF911F910F91FF90EF90DF90CF9071
:10039000BF90AF909F908F9008956F927F928F92B1
:1003A0009F92AF92BF92CF92DF92EF92FF920F9304
:1003B0001F93CF93DF93CDB7DEB762970FB6F89454
:1003C000DEBF0FBECDBF4C013B01BA01CE01079687
:1003D00019D7AE01495F5F4FB301CE01019656DFD9
:1003E000CE0101967ED6CE0107967BD6F3016081C1
:1003F0007181882777FD8095982F1F921F922EE09C
:100400002F9320E12F93A12CB12C6501E12C10E159
:10041000F12E00E010E020E030E0A9011DD6F3014C
:10042000738362834AE0C4010BD70F900F900F9043
:100430000F90F40184819581049781F067E272E066
:10044000CE010196B5D6B401CE0101964DD7BC01BF
:10045000C401C3D6CE01019644D6EBCF24E030E0F0
:1004600043E050E0B401CE01019685D723E030E0AF
:1004700040E050E0B401CE010D967DD7BE01635F30
:100480007F4FCE010796BED669E272E0CE01079695
:100490003CD7BE016F5F7F4F27D7BC01C4019DD6FB
:1004A000CE0107961ED6CE010D961BD6CE01019623
:1004B00018D6C40162960FB6F894DEBF0FBECDBF4A
:1004C000DF91CF911F910F91FF90EF90DF90CF9030
:1004D000BF90AF909F908F907F906F90089520E095
:1004E00042E060E188E492E081C2CF92DF92EF9235
:1004F000FF928091620242D49093610280936002E5
:100500001092670210926602609164027091650217
:10051000E8E6F2E021E030E040E050E0A191B19166
:100520007D01E61AF70A8E159F0534F0A60FB71F56
:10053000A817B9070CF0A9012F5F3F4F26303105EE
:1005400069F750936702409366024130510561F5A7
:10055000C0904402D0904502E0904602F0904702DD
:100560003AD3C616D706E806F906F0F434D3685332
:100570007F4F8F4F9F4F609344027093450280934B
:100580004602909347028091420290914302833049
:10059000910534F40196909343028093420204C083
:1005A0001092430210924202FF90EF90DF90CF90A2
:1005B00008950F931F93CF93DF93CDB7DEB7629764
:1005C0000FB6F894DEBF0FBECDBF88E492E0F1D144
:1005D00040E060E088E492E0F1D16BE272E088E410
:1005E00092E032D540E06AE088E492E0E7D1009101
:1005F000420210914302F801EE0FFF1FEA58FD4F2F
:100600006081809172026BD4F801EE0FFF1FE258F7
:10061000FD4F60818091740262D4F801EE0FFF1FDC
:10062000EA57FD4F608171814AE0CE01079608D6F6
:10063000BE01695F7F4FCE010196E4D564E372E0AD
:10064000CE01019662D6BC01CE010D96DBD5CE015E
:10065000019647D5CE01079644D5BE01635F7F4F13
:1006600088E492E0E3D4CE010D963BD541E060E012
:1006700088E492E0A3D165E272E0CE01079698D5B6
:10068000AE01495F5F4F6EE872E0CE010196FEDD7C
:10069000BE016F5F7F4F88E492E0C8D4CE0101961F
:1006A00020D5CE0107961DD541E06AE088E492E0AE
:1006B00085D165E272E0CE0107967AD5AE01495F39
:1006C0005F4F6EE872E0CE01019667DEBE016F5F9C
:1006D0007F4F88E492E0AAD4CE01019602D5CE01E4
:1006E0000796FFD441E06FE088E492E067D16FEDB8
:1006F00088E492E0AAD4F9DE64E670E080E090E05D
:1007000099D262960FB6F894DEBF0FBECDBFDF91CF
:10071000CF911F910F910895AF92CF92EF920F93C7
:10072000CF93DF938FE190E09093930280939202B6
:1007300081E290E0909395028093940283E290E0AE
:10074000909397028093960285E290E090939902AD
:100750008093980287E290E090939B0280939A02A4
:1007600089E290E090939D0280939C028BE290E05E
:1007700090939F0280939E028DE290E09093A1025D
:100780008093A0028FE290E09093A3028093A20254
:1007900081E390E09093A5028093A40283E390E02C
:1007A0009093A7028093A60285E390E09093A9021C
:1007B0008093A802C2E9D2E08881229662E056D3F3
:1007C00082E0CA3AD807C1F788E0EBE0F2E0A6E79A
:1007D000B2E001900D928A95E1F788E0E3E1F2E062
:1007E000AEE7B2E001900D928A95E1F788E0EBE187
:1007F000F2E0A6E8B2E001900D928A95E1F786E179
:10080000809372021092730228E130E030937502F7
:100810002093740261E02AD360E0809172025FD37A
:1008200061E08091740222D360E08091740257D31A
:1008300086E390E0909363028093620283E090E00D
:10084000909365028093640286ED92E09093690232
:100850008093680285EE91E090936B0280936A0228
:1008600085E890E090936D0280936C0287E391E0BD
:1008700090936F0280936E02109271021092700238
:1008800067E0A62E76E0C72EE5E0EE2E04E029E034
:100890004EE068E088E492E02FD1DF91CF910F9194
:1008A000EF90CF90AF900895CF93DF93EC0160E08D
:1008B0008E8115D381E090E0F4D161E08E810FD379
:1008C00081E090E0EED160E08E8109D384E690E093
:1008D000DF91CF91E6C1EF92FF920F931F93CF93D9
:1008E000DF938C01C0E0D0E0E62EF12CB7010C2E96
:1008F00002C0759567950A94E2F76170F801EC0FF4
:10090000FD1F8781ECD22196C430D10579F7C8014B
:10091000DF91CF911F910F91FF90EF90C5CFEF9294
:10092000FF920F931F93CF93DF938C01C0E0D0E031
:10093000E62EF12CB7010C2E02C0759567950A942E
:10094000E2F76170F801EC0FFD1F8781C8D2219694
:10095000C830D10579F7C801DF91CF911F910F9170
:10096000FF90EF90A1CF1F93CF93DF93EC01162F51
:10097000642F8C81B4D28D818F3F11F060E0AFD2B3
:100980008F85612F84FF05C0CE01DF91CF911F912C
:10099000C6CF70E084E0759567958A95E1F7CE0142
:1009A0009ADF612FCE01DF91CF911F9194CF40E06C
:1009B000DACF61E0FCDF80ED97E073C1443008F0EE
:1009C00043E0FC012389421710F04FEF420FFC0176
:1009D000E40FF11D2489260F2068622FE8CFFC0167
:1009E0006089262F2460208B6C60E1CF0F931F93CA
:1009F000CF93DF93EC01423018F08F8588608F87AA
:100A00004B8B1C8A80E48D8B6E8B70E0605C7F4F1B
:100A10006F8B222329F0413019F48F8584608F87F2
:100A200061E08C8123D28D818F3F11F061E01ED275
:100A300061E08E811BD200E010E08F8584FF03C04F
:100A400088E090E002C084E090E0081719074CF4B9
:100A5000FE01E00FF11F61E0878108D20F5F1F4F99
:100A6000ECCF80E593EC1DD160E08C8138D260E062
:100A70008E8135D28D818F3F11F060E030D26F854D
:100A800064FD16C063E0CE0126DF84E991E109D15F
:100A900063E0CE0120DF84E991E103D163E0CE0180
:100AA0001ADF86E990E0FDD062E0CE0114DF11C0CC
:100AB0006062CE017CDF84E991E1F3D06F856062F2
:100AC000CE0175DF86E990E0ECD06F856062CE01E3
:100AD0006EDF6F856062CE016ADF84E0888BCE01B5
:100AE0007EDFCE0166DF82E0898B66E0CE01DF919A
:100AF000CF911F910F915BCFAF92CF92EF920F9357
:100B0000FC01138212828DE392E0918380836483DF
:100B1000458326830783E086C186A28613861486D2
:100B200015861686178620E041E060E1CF010F911F
:100B3000EF90CF90AF905ACF41E015DF81E090E089
:100B400008951F920F920FB60F9211242F933F9387
:100B50008F939F93AF93BF938091AB029091AC0220
:100B6000A091AD02B091AE023091AA0223E0230F12
:100B70002D3720F40196A11DB11D05C026E8230FD5
:100B80000296A11DB11D2093AA028093AB029093FF
:100B9000AC02A093AD02B093AE028091AF029091EF
:100BA000B002A091B102B091B2020196A11DB11D97
:100BB0008093AF029093B002A093B102B093B202BF
:100BC000BF91AF919F918F913F912F910F900FBE49
:100BD0000F901F9018952FB7F8946091AB02709109
:100BE000AC028091AD029091AE022FBF08953FB745
:100BF000F8948091AF029091B002A091B102B091AF
:100C0000B20226B5A89B05C02F3F19F00196A11D81
:100C1000B11D3FBF6627782F892F9A2F620F711D54
:100C2000811D911D42E0660F771F881F991F4A950D
:100C3000D1F708958F929F92AF92BF92CF92DF9299
:100C4000EF92FF926B017C01D2DF4B015C01C1147A
:100C5000D104E104F104E1F0D1D3C9DF68197909C5
:100C60008A099B09683E73408105910580F321E064
:100C7000C21AD108E108F10888EE880E83E0981EB8
:100C8000A11CB11CC114D104E104F10431F7DFCF80
:100C9000FF90EF90DF90CF90BF90AF909F908F909C
:100CA00008958230910538F0880F991F880F991F99
:100CB00005970197F1F70895789484B5826084BD13
:100CC00084B5816084BD85B5826085BD85B5816050
:100CD00085BDEEE6F0E0808181608083E1E8F0E0B0
:100CE0001082808182608083808181608083E0E8DF
:100CF000F0E0808181608083E1EBF0E080818460BE
:100D00008083E0EBF0E0808181608083E1E9F0E0C6
:100D1000808182608083808181608083E0E9F0E06F
:100D2000808181608083E1EAF0E08081826080835D
:100D3000808181608083E0EAF0E08081816080834F
:100D4000E1E2F1E080818260808380818160808344
:100D5000E0E2F1E0808181608083EAE7F0E0808179
:100D600084608083808182608083808181608083D1
:100D70008081806880831092C1000895863308F0D6
:100D8000865320917B00982F9870277F922B909309
:100D90007B00877020910A0290E4299F9001112422
:100DA000822B80937C0080917A00806480937A000B
:100DB00080917A0086FDFCCF8091780020917900A7
:100DC00090E0922B089590E0FC013197E231F1051B
:100DD00008F04BC0EE58FF4F5FC3809180008F77C3
:100DE00003C0809180008F7D809380000895809162
:100DF0008000877FF9CF84B58F7702C084B58F7D5F
:100E000084BD08958091B0008F7703C08091B000B9
:100E10008F7D8093B0000895809190008F7707C0F8
:100E2000809190008F7D03C080919000877F809398
:100E3000900008958091A0008F7707C08091A00056
:100E40008F7D03C08091A000877F8093A0000895CC
:100E5000809120018F7707C0809120018F7D03C092
:100E600080912001877F809320010895CF93DF93A5
:100E700090E0FC01E25BFE4F2491FC01EC56FE4F3A
:100E80008491882349F190E0880F991FFC01E25F6B
:100E9000FD4FA591B4918C509E4FFC01C591D4910A
:100EA0009FB7611108C0F8948C91209582238C9390
:100EB000888182230AC0623051F4F8948C91322FD9
:100EC000309583238C938881822B888304C0F89487
:100ED0008C91822B8C939FBFDF91CF9108950F93BC
:100EE0001F93CF93DF931F92CDB7DEB7282F30E04B
:100EF000F901E85FFE4F8491F901E25BFE4F149126
:100F0000F901EC56FE4F04910023C1F0882319F03B
:100F1000698359DF6981E02FF0E0EE0FFF1FEC508D
:100F2000FE4FA591B4919FB7F8948C91611103C0C5
:100F30001095812301C0812B8C939FBF0F90DF916F
:100F4000CF911F910F910895CF93DF93282F30E019
:100F5000F901E85FFE4F8491F901E25BFE4FD49105
:100F6000F901EC56FE4FC491CC2389F081112BDF9F
:100F7000EC2FF0E0EE0FFF1FE652FE4FA591B4916B
:100F80002C912D2381E090E021F480E002C080E0EC
:100F900090E0DF91CF91089508958EDEFDDF9FDA16
:100FA000C0E0D0E006DB2097E9F30E940000FACF12
:100FB000CF92DF92EF92FF920F931F93CF93DF9325
:100FC0007C016A01EB0100E010E00C151D0571F0D9
:100FD0006991D701ED91FC910190F081E02DC7015D
:100FE0001995892B19F00F5F1F4FEFCFC801DF91C3
:100FF000CF911F910F91FF90EF90DF90CF900895C8
:101000006115710581F0DB010D900020E9F7AD015C
:1010100041505109461B570BDC01ED91FC910280B8
:10102000F381E02D199480E090E00895DC01ED91CA
:10103000FC91DB0114964D915C9115976D917C911B
:101040000280F381E02D1994DBCFDC01ED91FC915E
:101050000190F081E02D19944F925F926F927F92F0
:10106000AF92BF92CF92DF92EF92FF920F931F93B6
:10107000CF93DF93CDB7DEB729013A01621B730B23
:10108000840B950B2A893B894C895D892A193B0978
:101090004C095D092A8B3B8B4C8B5D8B9B01AC0112
:1010A0006A897B898C899D89AAD1E418F50806098B
:1010B0001709A8019701D4D12A0D3B1D4C1D5D1DB8
:1010C000CA01B901DF91CF911F910F91FF90EF906D
:1010D000DF90CF90BF90AF907F906F905F904F90D8
:1010E0000895FC018081918192C2CF93DF93EC013E
:1010F00088819981009709F08AD2198218821D820D
:101100001C821B821A82DF91CF9108950F931F9347
:10111000CF93DF93EC018B016F5F7F4F88819981C3
:1011200005D3009731F0998388831B830A8381E07C
:1011300001C080E0DF91CF911F910F910895CF936F
:10114000DF93EC0188819981892B29F08A819B8129
:101150008617970758F4CE01D9DF882341F08C8198
:101160009D81892B19F4E881F981108281E0DF915A
:10117000CF910895EF92FF920F931F93CF93DF9338
:10118000EC017B018A01BA01DADF811103C0CE01D3
:10119000ACDF06C01D830C83B70188819981BCD365
:1011A000CE01DF91CF911F910F91FF90EF900895A5
:1011B000FC01118210821382128215821482611541
:1011C000710551F0FB0101900020E9F7AF0141509A
:1011D0005109461B570BCECF0895CF93DF93EC01F7
:1011E000FB018617970751F06081718161157105C8
:1011F00021F044815581BEDF01C077DFCE01DF9150
:10120000CF910895FC0111821082138212821582FF
:101210001482E3CFCF93DF93EC016115710559F090
:10122000FB0101900020E9F7AF0141505109461B35
:10123000570BA0DF01C059DFCE01DF91CF91089598
:101240000F931F93CF93DF93CDB7DEB762970FB69F
:10125000F894DEBF0FBECDBF8C01CB01F801118227
:101260001082138212821582148250E0BE016F5FD9
:101270007F4F59D3BE016F5F7F4FC801CBDF6296AE
:101280000FB6F894DEBF0FBECDBFDF91CF911F9197
:101290000F910895EF92FF920F931F93CF93DF93D7
:1012A000EC017B010C811D816115710511F480E059
:1012B00014C04115510581F0040F151FB8013FDF1F
:1012C0008823A9F3288139818C819D81B701820F00
:1012D000931F22D31D830C8381E0DF91CF911F9157
:1012E0000F91FF90EF900895CF93DF93EC01FB01F6
:1012F0004481558160817181CDDF811102C0CE01B1
:10130000F4DECE01DF91CF910895CF93DF93EC010E
:101310006115710561F0FB0101900020E9F7AF0153
:1013200041505109461B570BB5DF811102C0CE0158
:10133000DCDECE01DF91CF910895FC01248135815F
:10134000232B31F421E06115710599F0FB0108C0F0
:10135000FC01808191816115710531F421E0FC016E
:101360008081882331F004C0CED221E0892B09F09E
:1013700020E0822F0895BF92CF92DF92EF92FF92EA
:101380000F931F93CF93DF936C017B01EA018901D7
:101390002417350720F48D2FE901042F182F6AE256
:1013A00072E0C60105DFD70114968D919C911597C7
:1013B000C817D907C0F48017910708F48C01D7012A
:1013C000ED91FC911197E00FF11FB08010826D91AB
:1013D0007C916C0F7D1FC6011DDFD701ED91FC9143
:1013E000E00FF11FB082C601DF91CF911F910F91E5
:1013F000FF90EF90DF90CF90BF9008950895DB01AC
:101400008F939F934FD0BF91AF91A29F800D911D5D
:10141000A39F900DB29F900D11240895A1E21A2E62
:10142000AA1BBB1BFD010DC0AA1FBB1FEE1FFF1F88
:10143000A217B307E407F50720F0A21BB30BE40BD8
:10144000F50B661F771F881F991F1A9469F760951F
:101450007095809590959B01AC01BD01CF010895D9
:10146000052E97FB16F400940FD057FD05D0D6DF5C
:1014700007FC02D046F408C0509540953095219560
:101480003F4F4F4F5F4F08959095809570956195B0
:101490007F4F8F4F9F4F0895EE0FFF1F0590F491E0
:1014A000E02D19940DD0A59F900DB49F900DA49F91
:1014B000800D911D112408950790F691E02D199447
:1014C000A29FB001B39FC001A39F700D811D112485
:1014D000911DB29F700D811D1124911D0895CF9310
:1014E000DF938230910510F482E090E0E091B50244
:1014F000F091B60220E030E0A0E0B0E0309739F1A2
:101500004081518148175907B8F04817590771F4BD
:1015100082819381109729F013969C938E93129752
:101520002CC09093B6028093B50227C021153105D7
:1015300031F04217530718F0A901DB0101C0EF0198
:101540009A01BD01DF010280F381E02DD7CF211583
:101550003105F9F0281B390B2430310580F48A81DC
:101560009B816115710521F0FB019383828304C087
:101570009093B6028093B502FE01329644C0FE01FC
:10158000E20FF31F8193919322503109398328830D
:101590003AC02091B3023091B402232B41F4209140
:1015A0000202309103023093B4022093B3022091DF
:1015B0000002309101022115310541F42DB73EB7EB
:1015C0004091040250910502241B350BE091B302B7
:1015D000F091B402E217F307A0F42E1B3F0B28177B
:1015E000390778F0AC014E5F5F4F2417350748F09C
:1015F0004E0F5F1F5093B4024093B30281939193B7
:1016000002C0E0E0F0E0CF01DF91CF910895CF93E9
:10161000DF93009709F487C0FC013297138212828E
:10162000C091B502D091B602209781F4208131811A
:10163000280F391F8091B3029091B402821793074B
:1016400079F5F093B402E093B3026DC0DE0120E0BF
:1016500030E0AE17BF0750F412964D915C9113978E
:101660009D014115510509F1DA01F3CFB383A2833E
:1016700040815181840F951F8A179B0771F48D91CA
:101680009C911197840F951F0296918380831296E7
:101690008D919C911397938382832115310529F4B1
:1016A000F093B602E093B5023EC0D9011396FC93C5
:1016B000EE9312974D915D91A40FB51FEA17FB07AA
:1016C00079F480819181840F951F0296D90111963A
:1016D0009C938E938281938113969C938E93129701
:1016E000E0E0F0E08A819B81009719F0FE01EC01B7
:1016F000F9CFCE01029628813981820F931F209164
:10170000B3023091B4022817390769F4309729F4ED
:101710001092B6021092B50202C013821282D093C8
:10172000B402C093B302DF91CF9108956F927F927C
:101730008F929F92AF92BF92CF92DF92EF92FF92E1
:101740000F931F93CF93DF93EC01CB01209779F494
:10175000DF91CF911F910F91FF90EF90DF90CF908D
:10176000BF90AF909F908F907F906F90B8CEFE010A
:10177000E60FF71F9E0122503109E217F30708F424
:10178000A8C0D9010D911C91119706171707B0F049
:101790000530110508F49BC0A801445051094617B3
:1017A000570708F494C002501109061B170B019348
:1017B00011936D937C93CF012ADF89C05B01A01A3E
:1017C000B10A4E01800E911EA091B502B091B602F1
:1017D000612C712C60E070E0109709F449C0A815E5
:1017E000B905C9F5ED90FC901197670142E0C40E70
:1017F000D11CCA14DB0478F147018A189B086401E4
:1018000042E0C40ED11C1296BC9012971396AC9174
:10181000B5E0CB16D10440F0B282A38391828082DE
:10182000D9018D939C9309C00E5F1F4F0E0D1F1D94
:10183000F90111830083EB2DFA2F6115710531F049
:10184000DB011396FC93EE93129741C0F093B6021E
:10185000E093B5023CC06D917C91119766167706B6
:1018600008F43B01BD0112960D90BC91A02DB4CFA0
:101870006091B3027091B40268157905E9F46816B5
:101880007906D0F4409100025091010241155105B2
:1018900041F44DB75EB76091040270910502461B9A
:1018A000570BE417F507A8F4F093B402E093B302E2
:1018B000F901918380830BC012DE7C01009749F00F
:1018C000A801BE0117D0CE01A2DEC70104C0CE011F
:1018D00002C080E090E0DF91CF911F910F91FF90C7
:1018E000EF90DF90CF90BF90AF909F908F907F90C0
:1018F0006F900895FB01DC0102C001900D924150F0
:101900005040D8F70895FB01DC018D9101908019BA
:101910000110D9F3990B0895FB01DC0101900D92A0
:101920000020E1F708954532510518F4423008F0DF
:1019300004C0FB011082CB010895BB274A3031F46B
:10194000992322F4BDE2909581959F4F01C0BB275A
:10195000FB015527AA27880F991FAA1FA41710F06B
:10196000A41B83955051B9F7A05DAA3308F0A95D77
:10197000A193009779F7B111B1931192CB0100C0F7
:10198000DC01FC01672F71917723E1F7329704C0E6
:101990007C916D9370836291AE17BF07C8F3089571
:0419A000F894FFCFE9
:1019A4000000B702800001000000010100010000F6
:1019B40000000001000000010000000A000C000FFC
:1019C4000014004C00480030002E005265736F6C08
:1019D40076657200206B487A00000000009C05D8F0
:0219E4000700FA
:00000001FF
